:100000000C945D000C947A000C9450040C947A00CB
:100010000C947A000C947A000C947A000C947A0078
:100020000C947A000C947A000C947A000C947A0068
:100030000C947A000C947A000C947A000C947A0058
:100040000C947A000C94D50D0C947A000C947A00E0
:100050000C947A000C947A000C947A000C947A0038
:100060000C947A000C947A000C947A000C947A0028
:100070000C947A000C947A000C947A000C947A0018
:100080000C94F60E0C947A000C947A000C947A007E
:100090000C947A000C947A000C947A000C947A00F8
:1000A0000C947A000C947A000C947A004709570952
:1000B0006709770977097709770911241FBECFEF00
:1000C000DAE0DEBFCDBF14E0A0E0B1E0E6E5F6E2A5
:1000D00002C005900D92A43AB107D9F725E0A4EA31
:1000E000B4E001C01D92A630B207E1F70E941705E7
:1000F0000C9429130C940000CF93DF93CDB7DEB797
:100100002A970FB6F894DEBF0FBECDBF81E090E016
:100110009A83898382E090E09C838B8383E090E0E4
:100120009E838D8329813A818B819C81289FA001A8
:10013000299F500D389F500D11242D813E81429FE3
:10014000C001439F900D529F900D112498878F837B
:1001500084E690E09A8789872F81388589859A85FA
:100160008217930714F480E001C081E02A960FB64D
:10017000F894DEBF0FBECDBFDF91CF910895CF932E
:10018000DF93CDB7DEB781E0DF91CF910895CF93B4
:10019000DF9300D000D0CDB7DEB784E690E09A833D
:1001A000898389E190E09C838B8329813A818B81CB
:1001B0009C812817390714F480E001C081E00F907A
:1001C0000F900F900F90DF91CF910895CF93DF9311
:1001D00000D01F92CDB7DEB789837B836A83898184
:1001E000882359F48DE091E0892F8F938DE091E081
:1001F0008F930E94CB0F0F900F900F900F900F9046
:10020000DF91CF910895CF93DF93CDB7DEB7DF9124
:10021000CF910895CF93DF93CDB7DEB7DF91CF9124
:100220000895CF93DF93CDB7DEB787E291E00E94C8
:10023000E10F8091A4049091A5048130910561F0B3
:100240008130910518F0029769F013C00E947C007C
:1002500060E070E00E94E6000E94BF0061E070E094
:100260000E94E6000E94C70062E070E00E94E60083
:100270000000DF91CF910895CF93DF9300D000D09D
:100280001F92CDB7DEB71C821B828CEF90E09A8361
:10029000898313C0898181708D838D810E9443027F
:1002A0009C018B819C81820F931F9C838B8389810E
:1002B0009A81969587959A83898389819A81892BDA
:1002C00049F78B819C810A969C838B838B819C81CF
:1002D0000E969C838B838B819C810A969C838B8357
:1002E0008B819C810F900F900F900F900F90DF915A
:1002F000CF910895CF93DF9300D0CDB7DEB79A8327
:1003000089830E943C019093D5048093D40484E2B5
:1003100090E024E230E0F90120812860FC01208394
:1003200085E290E025E230E0F9012081277FFC01A1
:100330002083F89489819A81BC0186EA94E00E9426
:10034000390A89819A81BC018FEA94E00E94390AB6
:1003500089819A81BC0188EB94E00E94390A8AE283
:1003600090E02AE230E0F90120812D7FFC0120831A
:100370008BE290E02BE230E0F90120812260FC0169
:1003800020838AE290E02AE230E0F90120812E7F8A
:10039000FC0120838BE290E02BE230E0F901208128
:1003A0002160FC01208389E690E029E630E0F90134
:1003B00020812460FC0120838DE390E02DE330E078
:1003C000F90120812260FC01208378940F900F9026
:1003D000DF91CF910895CF93DF93CDB7DEB7F89437
:1003E0008DE390E02DE330E0F90120812D7FFC01C9
:1003F00020837894DF91CF910895CF93DF93CDB789
:10040000DEB7F8948AE290E02AE230E0F901208138
:100410002D7FFC0120838DE390E02DE330E0F90196
:1004200020812260FC0120830E94DD037894DF910B
:10043000CF910895CF93DF93CDB7DEB780910001C0
:10044000DF91CF910895CF93DF93CDB7DEB781E0F1
:1004500080930001DF91CF910895CF93DF931F9296
:10046000CDB7DEB7898389818093D3040F90DF9164
:10047000CF910895CF93DF93CDB7DEB78091D304AA
:10048000DF91CF910895CF93DF931F92CDB7DEB761
:1004900089838981882319F086E090E002C082E098
:1004A00090E00F90DF91CF910895CF93DF9300D02C
:1004B000CDB7DEB789836A838981282F880F330BF4
:1004C0008A81082E000C990B02978217930774F407
:1004D0008981282F880F330B8A81082E000C990BF5
:1004E00002962817390714F481E001C080E00F90CC
:1004F0000F90DF91CF910895CF93DF9300D0CDB7C8
:10050000DEB78A8362E08A810E945502882311F057
:1005100019820BC066E08A810E945502882319F077
:1005200081E0898302C084E6898389810F900F90DE
:10053000DF91CF910895CF93DF93CDB7DEB72C979E
:100540000FB6F894DEBF0FBECDBF9C878B870E948D
:10055000EB018AE090E09C838B838EE090E09887AB
:100560008F8384E090E09A87898786EA94E00E94EE
:10057000580A8FE80E94800C00008B819C81969520
:10058000879541E0BC0186EA94E00E947C0A8823BA
:10059000A1F380E00E94800C000089859A859695E1
:1005A000879541E0BC0186EA94E00E947C0A88239A
:1005B000A1F331C08B85817089838B859C8595954E
:1005C00087959C878B8789810E9443028A838FE865
:1005D0000E94800C00008A8188230CF48F5F85952F
:1005E000082E000C990B41E0BC0186EA94E00E94C1
:1005F0007C0A882381F380E00E94800C00008985BA
:100600009A859695879541E0BC0186EA94E00E9420
:100610007C0A8823A1F38B859C85892B59F68FE86A
:100620000E94800C00008F8198859695879541E007
:10063000BC0186EA94E00E947C0A8823A1F380E052
:100640000E94800C000041E065E070E086EA94E0E2
:100650000E947C0A8823B9F30E94FD010E94DD03F9
:100660002C960FB6F894DEBF0FBECDBFDF91CF91B1
:100670000895CF93DF9300D000D000D0CDB7DEB780
:100680009E838D831A8210920301198229C08A8168
:10069000882361F48D819E810E949B028091D40405
:1006A0009091D5048C599F4F0E947C0B0E940604A8
:1006B0009C838B838B819C818C3F910571F485E2B7
:1006C00090E025E230E0F901308122E02327FC01AF
:1006D00020838AE0898381E08A8389818F5F89838F
:1006E00089818A30A4F281E0809303018A81269671
:1006F0000FB6F894DEBF0FBECDBFDF91CF91089546
:10070000CF93DF9300D000D000D0CDB7DEB71C82EE
:100710001B820E943A028D831A8219822DC0898120
:100720009A818F539B4FFC0180818E838E81813013
:1007300019F08E81882389F48E81082E000C990B84
:10074000098002C0880F991F0A94E2F72B813C812F
:10075000822B932B9C838B830AC084E690E09C833E
:100760008B838D81082E000C990B9A838983898154
:100770009A8101969A8389838D81282F880F330B64
:1007800089819A818217930754F20E9423028B81F8
:100790009C8126960FB6F894DEBF0FBECDBFDF91C9
:1007A000CF910895CF93DF93CDB7DEB7809101014C
:1007B00090910201DF91CF910895CF93DF93CDB750
:1007C000DEB71092D2041092D10485E290E025E2C7
:1007D00030E0F9012081277FFC012083DF91CF9158
:1007E0000895CF93DF93CDB7DEB740E062E370E0CA
:1007F00088EB94E00E947C0A882321F00E94DD03AC
:1008000081E001C080E0DF91CF910895CF93DF9325
:1008100000D0CDB7DEB700000E94F1038823E1F3DA
:100820000E941A02882381F40E9480039A8389839C
:1008300089819A818C3F910559F089819A819093A1
:1008400002018093010104C08CEC90E09A838983BB
:1008500089819A810F900F90DF91CF910895CF9366
:10086000DF93CDB7DEB78CEF90E00E949B02DF9163
:10087000CF910895CF93DF9300D01F92CDB7DEB70D
:100880009A8389836B8389819A818F539B4F2B81B4
:10089000FC0120830F900F900F90DF91CF9108956E
:1008A0001F920F9200905F000F9211242F933F939D
:1008B0004F935F936F937F938F939F93AF93BF9368
:1008C000EF93FF93CF93DF93CDB7DEB785E290E050
:1008D00025E230E0F901308128E02327FC01208364
:1008E0008091D204882361F48FEA94E00E94580A30
:1008F00081E08093D20488EB94E00E94580A83C080
:100900008FEA94E00E945F0B9093D9048093D804FF
:100910008091D8049091D904880F991F9093D9049D
:100920008093D8048091D8049091D90462E00E9409
:100930005502882391F08091D6049091D7040196B6
:100940009093D7048093D6048091D6049091D704D5
:10095000019760E00E943A0454C08091D8049091BD
:10096000D90466E00E945502882391F08091D60454
:100970009091D70401969093D7048093D6048091E8
:10098000D6049091D704019761E00E943A0439C0DF
:100990008091D8049091D9046AE00E94550288237E
:1009A00041F081E08093D1041092D7041092D604D4
:1009B00028C08091D8049091D9046EE00E9455021D
:1009C0008823F9F085E290E025E230E0F90120810A
:1009D000277FFC012083109200018091D604909122
:1009E000D7040E942D028091D104882351F082E324
:1009F00090E00E947C0B80910301813011F40E94F1
:100A00002F041092D204DF91CF91FF91EF91BF910B
:100A1000AF919F918F917F916F915F914F913F9196
:100A20002F910F9000925F000F901F901895CF9319
:100A3000DF93CDB7DEB729970FB6F894DEBF0FBEB0
:100A4000CDBF0E940D0C0E94620E8DE19EE00E94BF
:100A50007A016DE17EE0CE0101960E94390ACE0155
:100A600001960E94580A8AE290E02AE230E0F901F9
:100A700020812068FC0120830E94420641E064EF4F
:100A800071E0CE0101960E947C0A882351F08BE22E
:100A900090E02BE230E0F901308120E82327FC01CF
:100AA0002083ECCFCF93DF93CDB7DEB7DF91CF912B
:100AB0000895CF93DF9300D0CDB7DEB781E090E00B
:100AC0009A83898389E491E0892F8F9389E491E067
:100AD0008F930E94CB0F0F900F9089819A8101977D
:100AE00011F481E001C080E00F900F90DF91CF9171
:100AF0000895CF93DF93CDB7DEB788E591E0892FD6
:100B00008F9388E591E08F930E94CB0F0F900F9009
:100B10000000DF91CF910895CF93DF93CDB7DEB77B
:100B20000E9459050E94790587E691E00E94E10F35
:100B3000DF91CF910895CF93DF93CDB7DEB70E94B9
:100B4000EF058091DA049091DB0418161906B4F4CD
:100B50000E94E4050E94E405292F2F938F9388E7D4
:100B600091E0892F8F9388E791E08F930E94CB0FBC
:100B70000F900F900F900F9081E002C00E94D5055A
:100B8000DF91CF910895CF93DF93CDB7DEB70E9469
:100B900008068091DA049091DB04892B11F481E03E
:100BA00001C080E0DF91CF910895CF93DF93CDB75F
:100BB000DEB70E94E4051816190614F481E001C09E
:100BC00080E0DF91CF910895CF93DF93CDB7DEB76B
:100BD0008091DA049091DB04DF91CF910895CF9357
:100BE000DF9300D0CDB7DEB70E94BB0F24E630E024
:100BF000B9010E94410F9093DB048093DA04809145
:100C0000DA049091DB040F900F90DF91CF9108955B
:100C1000CF93DF93CDB7DEB71092DB041092DA04E6
:100C2000DF91CF910895CF93DF93CDB7DEB789E8F9
:100C300091E0892F8F9389E891E08F930E94CB0FE9
:100C40000F900F90DF91CF910895CF93DF93CDB7A1
:100C5000DEB78CE991E00E94E10F0E949B0588239A
:100C600021F080EC91E00E94E10F0E94E4050E94D7
:100C7000C305882321F082EE91E00E94E10FDF910D
:100C8000CF910895CF93DF93CDB7DEB71092F904DB
:100C90001092F8041092F1041092F004DF91CF91B9
:100CA0000895CF93DF93CDB7DEB78091F80490918C
:100CB000F9048230910531F18330910528F40097D1
:100CC00061F00197C1F030C08430910511F184309A
:100CD000910550F0059721F127C083E090E09093B3
:100CE000F9048093F80420C081E090E09093F90427
:100CF0008093F80419C082E090E09093F904809307
:100D0000F80412C084E090E09093F9048093F80412
:100D10000BC085E090E09093F9048093F80404C040
:100D20001092F9041092F8048091F8049091F9045B
:100D30000E949B02DF91CF910895CF93DF9300D063
:100D40001F92CDB7DEB79A8389836B8389819A819D
:100D5000FC018081918190930601809305018B8134
:100D6000282F880F330B89819A81FC0131832083DE
:100D70000F900F900F90DF91CF910895CF93DF9355
:100D800000D000D000D0CDB7DEB71E821D821A82FF
:100D900019821C821B821A8219821C821B820DC03E
:100DA00029813A818B819C81820F931F9E838D8341
:100DB0008B819C8101969C838B838B819C8180316C
:100DC000974274F389819A8101969A838983E5CF4A
:100DD000CF93DF93CDB7DEB728970FB6F894DEBF79
:100DE0000FBECDBF29833A834B835C836D837E83A3
:100DF0008F83988789819A818230910521F1833090
:100E0000910528F4009761F0019779F031C08430A2
:100E1000910501F18430910578F0059701F128C022
:100E200082E092E00E94E10F23C08BE092E00E94FA
:100E3000E10F0E9467081CC083E192E00E94E10F6D
:100E40000E94250615C08CE192E00E94E10F0E94ED
:100E50009C080EC084E292E00E94E10F09C08AE380
:100E600092E00E94E10F8EE492E00E94E10F000008
:100E70000E94BE0687E692E00E94E10F0E945106A2
:100E80000E94BE0628960FB6F894DEBF0FBECDBFF7
:100E9000DF91CF910895CF93DF9300D0CDB7DEB728
:100EA0000E94A2099A83898389819A81892B19F4E6
:100EB00080E090E002C089819A810F900F90DF91CD
:100EC000CF910895CF93DF9300D0CDB7DEB70E94C6
:100ED0007D099A83898389819A81892B19F480E01D
:100EE00090E002C089819A810F900F90DF91CF919D
:100EF0000895CF93DF9300D0CDB7DEB70E94C70926
:100F00009A83898389819A81892B19F480E090E002
:100F100002C089819A810F900F90DF91CF9108953F
:100F2000CF93DF9300D0CDB7DEB70E94DD099A835F
:100F3000898389819A81892B19F480E090E002C02D
:100F400089819A810F900F90DF91CF910895CF936F
:100F5000DF9300D0CDB7DEB70E94F5099A8389836D
:100F600089819A81892B19F480E090E002C08981FF
:100F70009A810F900F90DF91CF910895CF93DF93D7
:100F8000CDB7DEB72A970FB6F894DEBF0FBECDBF40
:100F90000E944B079A8389830E9462079C838B83FC
:100FA0000E9479079E838D830E94900798878F8384
:100FB0000E94A7079A87898789819A81892B29F4BA
:100FC0008AE792E00E94E10F11C08A818F938981A4
:100FD0008F938BEA92E0892F8F938BEA92E08F9325
:100FE0000E94CB0F0F900F900F900F908B819C81E0
:100FF000892B29F48EEB92E00E94E10F11C08C81C5
:101000008F938B818F9387EF92E0892F8F9387EF58
:1010100092E08F930E94CB0F0F900F900F900F9044
:101020008D819E81892B29F48CE093E00E94E10F51
:1010300011C08E818F938D818F9386E393E0892FEA
:101040008F9386E393E08F930E94CB0F0F900F90C6
:101050000F900F908F819885892B29F486E493E077
:101060000E94E10F11C088858F938F818F9380E755
:1010700093E0892F8F9380E793E08F930E94CB0FAB
:101080000F900F900F900F9089859A85892B29F4E6
:1010900080E893E00E94E10F11C08A858F938985D3
:1010A0008F938AEA93E0892F8F938AEA93E08F9354
:1010B0000E94CB0F0F900F900F900F902A960FB6B3
:1010C000F894DEBF0FBECDBFDF91CF910895CF93CF
:1010D000DF93CDB7DEB78AEB93E00E949B020E94BC
:1010E000BE078DEC93E00E949B02DF91CF910895A3
:1010F000CF93DF93CDB7DEB781EE93E0892F8F9347
:1011000081EE93E08F930E94CB0F0F900F90DF91B1
:10111000CF910895CF93DF93CDB7DEB788EF93E0FB
:10112000892F8F9388EF93E08F930E94CB0F0F90BE
:101130000F90DF91CF910895CF93DF93CDB7DEB7B6
:101140000E9478080E948A088DE094E00E94E10FD6
:1011500085E090E00E94C708DF91CF910895CF937A
:10116000DF9300D000D0CDB7DEB70E94BB0F24E6DE
:1011700030E0B9010E94410F9A83898389819A8165
:101180000F900F900F900F90DF91CF910895CF9314
:10119000DF9300D000D000D0CDB7DEB79E838D8323
:1011A0000E94AF089A83898389819A81892BC1F033
:1011B0008D819E810E94FF089C838B838B819C8103
:1011C000892B39F08DE194E00E94E10F81E090E0FD
:1011D0000DC084E494E00E94E10F8EEF9FEF06C003
:1011E00088E794E00E94E10F8FEF9FEF26960FB6FD
:1011F000F894DEBF0FBECDBFDF91CF910895CF939E
:10120000DF9300D000D000D0CDB7DEB79C838B83B6
:101210000E94BB0F23E030E0B9010E94410F9A8386
:10122000898389819A8126960FB6F894DEBF0FBE16
:10123000CDBFDF91CF910895CF93DF93CDB7DEB7C8
:101240000000DF91CF910895CF93DF93CDB7DEB744
:101250000000DF91CF910895CF93DF9300D0CDB7F9
:10126000DEB79A83898389819A81092E000CAA0BA3
:10127000BB0B40E050E026E030E0841B950B2817C4
:101280003907B0F18A5A9F4FFC010C94550F0E9408
:101290000A0185E290E025E230E0F9012081216039
:1012A000FC01208384EF91E00E947C0B21C00E940E
:1012B0000A018BE290E02BE230E0F9012081206806
:1012C000FC01208384EF91E00E947C0B11C00E94FE
:1012D0000A018BE290E02BE230E0F90120812064EA
:1012E000FC01208384EF91E00E947C0B01C0000090
:1012F0000F900F90DF91CF910895CF93DF9300D09F
:1013000000D0CDB7DEB788E390E09A8389838981E6
:101310009A81892B21F481E090E09A8389838981E5
:101320009A81992314F41A82198289819A819C8363
:101330008B838B819C810F900F900F900F90DF918A
:10134000CF910895CF93DF9300D000D0CDB7DEB713
:1013500088E090E09A83898389819A81892B21F49E
:1013600081E090E09A83898389819A81992314F49A
:101370001A82198289819A819C838B838B819C81BB
:101380000F900F900F900F90DF91CF910895CF9312
:10139000DF9300D0CDB7DEB71A82198289819A8196
:1013A000892B21F481E090E09A83898389819A8155
:1013B0000F900F90DF91CF910895CF93DF9300D0DE
:1013C000CDB7DEB781EF98ED9A83898389819A81C1
:1013D000892B21F481E090E09A83898389819A8125
:1013E0000F900F90DF91CF910895CF93DF9300D0AE
:1013F000CDB7DEB78FEF9FE79A83898389819A8182
:10140000892B21F481E090E09A83898389819A81F4
:101410000F900F90DF91CF910895CF93DF9300D07D
:1014200000D0CDB7DEB78FEF9FEF9A838983898194
:101430009A81892B21F481E090E09A8389838981C4
:101440009A81992314F41A82198289819A819C8342
:101450008B838B819C810F900F900F900F90DF9169
:10146000CF910895CF93DF93CDB7DEB7DF91CF91C2
:101470000895CF93DF9300D000D0CDB7DEB79A8325
:1014800089837C836B838B819C81892B11F480E021
:1014900008C089819A812B813C81FC013087278398
:1014A00081E00F900F900F900F90DF91CF910895F2
:1014B000CF93DF9300D0CDB7DEB79A83898389813C
:1014C0009A81FC0187819085892B69F089819A81B5
:1014D000FC0187819085FC0109959C0189819A8195
:1014E000FC013183208389819A81FC0112820F9053
:1014F0000F90DF91CF910895CF93DF93CDB7DEB7F3
:1015000029970FB6F894DEBF0FBECDBF9E838D83A3
:1015100078876F8349871A8219828D819E81FC01A9
:1015200087819085892B81F08D819E81FC01878147
:101530009085FC0109959C838B838D819E81FC01A4
:101540008281813041F402C080E02FC08D819E8174
:10155000FC0184812AC08D819E81FC018081918162
:101560002B813C81A901481B590BCA019A838983AD
:1015700029813A818F8198852817390788F08D81D4
:101580009E8121E0FC0124838985882339F08D81A7
:101590009E812B813C81FC013183208381E005C049
:1015A0008D819E81FC01148280E029960FB6F8940B
:1015B000DEBF0FBECDBFDF91CF910895CF93DF93F4
:1015C00000D01F92CDB7DEB79A8389836B83898160
:1015D0009A812B81FC0122830F900F900F90DF9155
:1015E000CF910895CF93DF9300D0CDB7DEB79A8324
:1015F000898389819A81FC0184810F900F90DF910A
:10160000CF910895CF93DF9300D000D0CDB7DEB750
:101610009A8389837C836B8389819A81FC012081F1
:1016200031818B819C81281B390B89819A81FC0136
:10163000318320830F900F900F900F90DF91CF9107
:101640000895CF93DF9300D000D0CDB7DEB79A8353
:1016500089837C836B8389819A81FC01208131811C
:101660008B819C81280F391F89819A81FC013183EC
:1016700020830F900F900F900F90DF91CF910895DE
:10168000CF93DF9300D000D0CDB7DEB79A838983A4
:101690007C836B8389819A81FC01208131818B81DC
:1016A0009C81FC0180819181A901481B590BCA01D1
:1016B0000F900F900F900F90DF91CF910895CF93DF
:1016C000DF9300D0CDB7DEB79A83898389819A8171
:1016D000FC0187819085FC0109959C0189819A8193
:1016E000FC0180819181A901481B590BCA010F900F
:1016F0000F90DF91CF910895CF93DF93CDB7DEB7F1
:101700002B970FB6F894DEBF0FBECDBF9B878A879D
:101710006DE17EE0CE0101960E94390ACE0101966C
:101720000E94580A00008A859B8599230CF4019633
:101730009595879540E0BC01CE0101960E947C0AF8
:10174000882389F32B960FB6F894DEBF0FBECDBF6A
:10175000DF91CF910895CF93DF93CDB7DEB72C976C
:101760000FB6F894DEBF0FBECDBF9C878B87CE012E
:1017700002966DE17EE00E94390ACE0102960E9437
:10178000580A198207C088EE93E00E947C0B898179
:101790008F5F89838981282F880F330B8B859C85E8
:1017A0002817390784F32C960FB6F894DEBF0FBEC6
:1017B000CDBFDF91CF910895CF93DF93CDB7DEB743
:1017C0002C970FB6F894DEBF0FBECDBF9C878B87DA
:1017D000CE0102966DE17EE00E94390ACE010296AA
:1017E0000E94580A198207C08CE390E00E94AB0B5C
:1017F00089818F5F89838981282F880F330B8B859F
:101800009C852817390784F32C960FB6F894DEBF11
:101810000FBECDBFDF91CF910895CF93DF93CDB7AA
:10182000DEB7F8948AE290E02AE230E0F901208104
:101830002160FC0120838BE290E02BE230E0F90193
:1018400020812E7FFC01208384E490E023E0FC01D2
:10185000208385E490E028E0FC01208385E490E08B
:1018600025E430E0F90120812160FC01208387E438
:1018700090E02FE8FC01208388E490E02EE1FC0159
:1018800020837894DF91CF910895CF93DF93CDB7E4
:10189000DEB7F89484E490E024E430E0F90120819C
:1018A0002F7DFC0120831092DE047894DF91CF918C
:1018B0000895CF93DF93CDB7DEB7F89484E490E03A
:1018C00024E430E0F90120812062FC01208381E0E2
:1018D0008093DE047894DF91CF910895CF93DF93C6
:1018E0001F92CDB7DEB789838981882329F087E4E9
:1018F00090E02981FC0120830F90DF91CF91089522
:10190000CF93DF931F92CDB7DEB789838981882378
:1019100019F40E94450C07C00E94590C87E490E01E
:101920002981FC0120830F90DF91CF910895CF93FF
:10193000DF931F92CDB7DEB789838091DE048823C1
:1019400019F00E94450C07C00E94590C87E490E0F2
:101950002981FC0120830F90DF91CF910895CF93CF
:10196000DF9300D000D0CDB7DEB7F8948091DF04CC
:101970009091E004A091E104B091E20489839A83FC
:10198000AB83BC83789489819A81AB81BC81BC0193
:10199000CD010F900F900F900F90DF91CF91089590
:1019A000CF93DF9300D0CDB7DEB7F8948091DF04FA
:1019B0009091E004A091E104B091E2049A838983BC
:1019C000789489819A810F900F90DF91CF9108953B
:1019D000CF93DF931F92CDB7DEB7F8948091DF04E9
:1019E0009091E004A091E104B091E204898378949D
:1019F00089810F90DF91CF910895CF93DF9300D02D
:101A0000CDB7DEB7F8948091E3049091E404A091FF
:101A1000E504B091E6049A838983789489819A8158
:101A20000F900F90DF91CF910895CF93DF931F9286
:101A3000CDB7DEB781EE90E0FC011082198211C0B3
:101A400089EE90E02981FC01208388EE90E020EF70
:101A500030E040E0F9014083FC01408389818F5FE1
:101A600089838981863060F3F8948AE290E02AE2E3
:101A700030E0F90120812360FC01208380E890E0C0
:101A8000FC01108281E890E028E0FC01208381E8DD
:101A900090E021E830E0F90120812160FC01208301
:101AA00088E890E028EA31E6FC01318320838AE867
:101AB00090E028EC30E0FC013183208382E890E064
:101AC000FC01108284E890E0FC01118210828FE614
:101AD00090E022E0FC01208388ED90E0FC01108280
:101AE00088ED90E028ED30E0F90120812062FC01D2
:101AF000208385E690E025E630E0F901208120682A
:101B0000FC01208382EE90E0FC01108278940F901B
:101B1000DF91CF910895CF93DF93CDB7DEB780E803
:101B200090E020E830E0F90120812F7DFC01208346
:101B3000DF91CF910895CF93DF93CDB7DEB7F894BF
:101B400080E890E020E830E0F90120812062FC018B
:101B500020837894DF91CF910895CF93DF931F92E4
:101B6000CDB7DEB789838981882319F40E948B0D54
:101B700018C00E949B0D88E890E02981222F30E058
:101B8000FC01318320838AE890E02981222F30E014
:101B90004FEF50E0BA01621B730B9B01FC013183D4
:101BA00020830F90DF91CF9108951F920F920090A4
:101BB0005F000F9211242F933F938F939F93EF9386
:101BC000FF93CF93DF93CDB7DEB78BE290E02BE2AC
:101BD00030E0F90120812062FC012083DF91CF9168
:101BE000FF91EF919F918F913F912F910F900092D4
:101BF0005F000F901F901895CF93DF9300D000D017
:101C0000CDB7DEB7F8948091E7049091E804A091F5
:101C1000E904B091EA0489839A83AB83BC83789406
:101C200089819A81AB81BC81BC01CD010F900F905D
:101C30000F900F90DF91CF910895CF93DF9300D055
:101C4000CDB7DEB7F8948091E7049091E804A091B5
:101C5000E904B091EA049A838983789489819A810E
:101C60000F900F90DF91CF910895CF93DF931F9244
:101C7000CDB7DEB7F8948091E7049091E804A09185
:101C8000E904B091EA048983789489810F90DF9107
:101C9000CF910895CF93DF9300D0CDB7DEB7F894FE
:101CA0008091EB049091EC04A091ED04B091EE04CE
:101CB0009A838983789489819A810F900F90DF911C
:101CC000CF910895CF93DF93CDB7DEB7F89480E935
:101CD00090E0FC01108281E990E028E0FC01208383
:101CE00081E990E021E930E0F90120812360FC01E5
:101CF000208388E990E028EE30E0FC0131832083E6
:101D000082E990E0FC01108284E990E0FC011182FC
:101D1000108281E790E022E0FC01208388ED90E0D2
:101D2000FC01108288ED90E028ED30E0F90120817F
:101D30002062FC01208385E690E025E630E0F90191
:101D400020812068FC01208382EE90E0FC0110825B
:101D50007894DF91CF910895CF93DF93CDB7DEB71D
:101D600080E990E020E930E0F90120812F77FC0143
:101D70002083DF91CF910895CF93DF93CDB7DEB766
:101D8000F89480E990E020E930E0F90120812068B2
:101D9000FC0120837894DF91CF910895CF93DF9356
:101DA0001F92CDB7DEB789838981882319F40E94F9
:101DB000AC0E18C00E94BC0E88E990E02981222F49
:101DC00030E0FC01318320838AE990E02981222FD1
:101DD00030E04FEF50E0BA01621B730B9B01FC0136
:101DE000318320830F90DF91CF9108951F920F923E
:101DF00000905F000F9211248F939F93AF93BF9336
:101E0000CF93DF93CDB7DEB78091E7049091E804DC
:101E1000A091E904B091EA040196A11DB11D80933F
:101E2000E7049093E804A093E904B093EA04809156
:101E3000EF048F5F8093EF048091EF048530A8F06A
:101E40001092EF048091EB049091EC04A091ED04CA
:101E5000B091EE040196A11DB11D8093EB04909307
:101E6000EC04A093ED04B093EE04DF91CF91BF9109
:101E7000AF919F918F910F9000925F000F901F90F4
:101E8000189597FB072E16F4009407D077FD09D01C
:101E90000E945B0F07FC05D03EF4909581959F4F03
:101EA0000895709561957F4F0895EE0FFF1F05907F
:101EB000F491E02D0994AA1BBB1B51E107C0AA1F96
:101EC000BB1FA617B70710F0A61BB70B881F991FDB
:101ED0005A95A9F780959095BC01CD0108958F92F0
:101EE0009F92AF92BF92CF92DF92EF92FF92CF93E9
:101EF000DF93EC01688179818A819B81611571058D
:101F00008105910521F464E279ED8BE597E02DE1FF
:101F100033EF41E050E00E948F1249015A019B01CA
:101F2000AC01A7EAB1E40E94AE126B017C01ACEEF9
:101F3000B4EFA50194010E94BC12DC01CB018C0D11
:101F40009D1DAE1DBF1DB7FF03C00197A109B0487D
:101F500088839983AA83BB839F77DF91CF91FF907A
:101F6000EF90DF90CF90BF90AF909F908F900895AB
:101F70000E946F0F089589E091E00E946F0F08950D
:101F8000A0E0B0E08093090190930A01A0930B01B7
:101F9000B0930C010895A0E0B0E0E1EDFFE00C94F7
:101FA000D112AE014B5F5F4FFA0161917191AF01A8
:101FB00080910205909103050E941110E2E00C94BB
:101FC000ED120F931F93CF93DF93E0910205F091F1
:101FD0000305238121FF1BC08C01D0E0C0E0F80184
:101FE00081918F016091020570910305DB011896C4
:101FF000ED91FC911997882331F00995892B79F39C
:10200000DFEFCFEFECCF8AE00995892B19F08FEF46
:102010009FEF02C08D2F9C2FDF91CF911F910F91C9
:102020000895ACE0B0E0E7E1F0E10C94C1127C016E
:102030006B018A01FC0117821682838181FFBDC179
:10204000CE0101964C01F7019381F60193FD859134
:1020500093FF81916F01882309F4ABC1853239F474
:1020600093FD859193FF81916F01853229F4B7012A
:1020700090E00E94F911E7CF512C312C20E0203262
:10208000A0F48B3269F030F4803259F0833269F475
:1020900020612CC08D3239F0803339F4216026C0A4
:1020A0002260246023C0286021C027FD27C030EDB6
:1020B000380F3A3078F426FF06C0FAE05F9E300D04
:1020C0001124532E13C08AE0389E300D1124332E74
:1020D00020620CC08E3221F426FD6BC1206406C044
:1020E0008C3611F4206802C0883641F4F60193FD65
:1020F000859193FF81916F018111C1CF982F9F7DB1
:102100009554933028F40C5F1F4FFFE3F9830DC003
:10211000833631F0833771F0833509F05BC022C01C
:10212000F801808189830E5F1F4F44244394512C12
:10213000540115C03801F2E06F0E711CF801A08047
:10214000B18026FF03C0652D70E002C06FEF7FEF06
:10215000C5012C870E94EE112C0183012C852F775D
:10216000222E17C03801F2E06F0E711CF801A0801A
:10217000B18026FF03C0652D70E002C06FEF7FEFD6
:10218000C5012C870E94E3112C012C852068222E8A
:10219000830123FC1BC0832D90E048165906B0F440
:1021A000B70180E290E00E94F9113A94F4CFF50172
:1021B00027FC859127FE81915F01B70190E00E9485
:1021C000F91131103A94F1E04F1A510841145104B9
:1021D00071F7E5C0843611F0893639F5F80127FF2B
:1021E00007C060817181828193810C5F1F4F08C09D
:1021F00060817181072E000C880B990B0E5F1F4FB9
:102200002F76722E97FF09C09095809570956195F5
:102210007F4F8F4F9F4F2068722E2AE030E0A4013D
:102220000E943112A82EA81844C0853729F42F7EA9
:10223000B22E2AE030E025C0F22FF97FBF2E8F3674
:10224000C1F018F4883579F0B4C0803719F08837B8
:1022500021F0AFC02F2F2061B22EB4FE0DC08B2D08
:102260008460B82E09C024FF0AC09F2F9660B92E43
:1022700006C028E030E005C020E130E002C020E1E7
:1022800032E0F801B7FE07C06081718182819381DD
:102290000C5F1F4F06C06081718180E090E00E5F8F
:1022A0001F4FA4010E943112A82EA818FB2DFF7702
:1022B0007F2E76FE0BC0372D3E7FA51450F474FEA2
:1022C0000AC072FC08C0372D3E7E05C0BA2C372DDF
:1022D00003C0BA2C01C0B52C34FF0DC0FE01EA0DBD
:1022E000F11D8081803311F4397E09C032FF06C0B0
:1022F000B394B39404C0832F867809F0B39433FD6C
:1023000013C030FF06C05A2CB31418F4530C5B18DA
:10231000B32CB31468F4B70180E290E03C870E94CC
:10232000F911B3943C85F5CFB31410F43B1801C0F8
:10233000312C34FF12C0B70180E390E03C870E944B
:10234000F9113C8532FF17C031FD03C088E790E0EA
:1023500002C088E590E0B7010CC0832F867859F061
:1023600031FF02C08BE201C080E237FD8DE2B70190
:1023700090E00E94F911A51438F4B70180E390E0D1
:102380000E94F9115A94F7CFAA94F401EA0DF11DB5
:102390008081B70190E00E94F911A110F5CF3320A0
:1023A00009F451CEB70180E290E00E94F9113A940D
:1023B000F6CFF7018681978102C08FEF9FEF2C96B1
:1023C000E2E10C94DD12FC010590615070400110B7
:1023D000D8F7809590958E0F9F1F0895FC0161504E
:1023E000704001900110D8F7809590958E0F9F1F37
:1023F00008950F931F93CF93DF93FB01238121FD5A
:1024000003C08FEF9FEF28C022FF16C0468157817F
:10241000248135814217530744F4A081B1819D0185
:102420002F5F3F4F318320838C93268137812F5F2D
:102430003F4F3783268310C0EB01092F182F0084EC
:10244000F185E02D0995892BE1F68E819F8101961A
:102450009F838E83812F902FDF91CF911F910F91BA
:102460000895FA01AA27283051F1203181F1E8942A
:102470006F936E7F6E5F7F4F8F4F9F4FAF4FB1E077
:102480003ED0B4E03CD0670F781F891F9A1FA11D72
:10249000680F791F8A1F911DA11D6A0F711D811D73
:1024A000911DA11D20D009F468943F912AE0269F38
:1024B00011243019305D3193DEF6CF010895462F97
:1024C0004770405D4193B3E00FD0C9F7F6CF462F78
:1024D0004F70405D4A3318F0495D31FD40524193E1
:1024E00002D0A9F7EACFB4E0A6959795879577959E
:1024F0006795BA95C9F700976105710508959B0125
:10250000AC010A2E06945795479537952795BA95AD
:10251000C9F7620F731F841F951FA01D0895052E14
:1025200097FB1EF400940E94A61257FD07D00E944C
:10253000F81207FC03D04EF40C94A6125095409567
:10254000309521953F4F4F4F5F4F0895909580955F
:10255000709561957F4F8F4F9F4F08950E941A137A
:10256000A59F900DB49F900DA49F800D911D1124E7
:102570000895B7FF0C94AE120E94AE12821B930B0B
:1025800008952F923F924F925F926F927F928F9217
:102590009F92AF92BF92CF92DF92EF92FF920F93F2
:1025A0001F93CF93DF93CDB7DEB7CA1BDB0B0FB6FC
:1025B000F894DEBF0FBECDBF09942A8839884888B9
:1025C0005F846E847D848C849B84AA84B984C8844F
:1025D000DF80EE80FD800C811B81AA81B981CE0F46
:1025E000D11D0FB6F894DEBF0FBECDBFED0108952B
:1025F000A1E21A2EAA1BBB1BFD010DC0AA1FBB1F07
:10260000EE1FFF1FA217B307E407F50720F0A21B78
:10261000B30BE40BF50B661F771F881F991F1A94E5
:1026200069F760957095809590959B01AC01BD010F
:10263000CF010895A29FB001B39FC001A39F700D69
:10264000811D1124911DB29F700D811D1124911DBA
:062650000895F894FFCF8D
:1026560001CC0001CC0500010101000000636F6E92
:10266600646974696F6E2076616C75652077617335
:102676002066616C73650052756E6E696E672048E0
:1026860065616C746820616E642053616665747957
:1026960020436865636B730A00696E697420706F06
:1026A6007765725F6F6E2000696E697420696D755B
:1026B6005F706F737420004C56534D2069732072FF
:1026C600756E6E696E670A0043757272656E742068
:1026D6007761733A2025640A006D656173757265CA
:1026E6005F63757272656E7428292000496E69747D
:1026F600616C697A696E67205068616E746F6D20CF
:102706004C6F6F70204D616E6167656D656E74000C
:102716005068616E746F6D204C6F6F7020737461BA
:1027260072746564207375636365737366756C6C28
:1027360079005068616E746F6D204C6F6F70206504
:102746006E646564207375636365737366756C6C1C
:10275600790052554E204C56534D0052554E20533B
:102766004D4D0052554E20504C4D0A0052554E20AC
:10277600544D4D0052554E204845414C54485F41FA
:102786004E445F5341464554590052554E205345D9
:102796004E445F544F5F53494D504C455800527557
:1027A6006E6E696E672053454E445F544F5F5349C2
:1027B6004D504C45580A003A3A4348414E47494E17
:1027C60047204D4F44453A3A0A00546865726520E1
:1027D60077617320616E206572726F7220696E2058
:1027E60067657474696E672074686520616D6269D7
:1027F600656E74206C696768742000416D62696556
:102806006E74206C696768743D2025640A005468FC
:102816006572652077617320616E206572726F72D2
:1028260020696E2067657474696E67207468652018
:10283600456C656374726F4D61676E65746963207C
:102846004669656C642000456C6563747269632033
:102856004669656C64203D2025640A0054686572EB
:10286600652077617320616E206572726F722069D0
:102876006E2067657474696E6720726F746174691F
:102886006F6E20582000526F746174696F6E205805
:102896003D2025640A0054686572652077617320BF
:1028A600616E206572726F7220696E20676574743E
:1028B600696E6720726F746174696F6E20592000AB
:1028C600526F746174696F6E20593D2025640A0049
:1028D60054686572652077617320616E2065727237
:1028E6006F7220696E2067657474696E6720726FF7
:1028F600746174696F6E205A2000526F7461746936
:102906006F6E205A3D2025640A005374617274204C
:102916004D6561737572656D656E74730053746F82
:1029260070204D6561737572656D656E7473000513
:1029360000696E6974206D6561737572655F737485
:102946007261696E28292000696E69742063686562
:10295600636B5F62756666657228292000544D4D6B
:102966002069732072756E6E696E670A005465740D
:1029760068657220457874656E73696F6E20536959
:10298600676E616C3A20312D2D2073756363656522
:102996006465640054657468657220457874656E74
:1029A60073696F6E205369676E616C3A202D322D04
:1029B6002D206661696C656420746F2073656E6492
:1029C600207369676E616C00546574686572204592
:1029D6007874656E73696F6E205369676E616C3AC1
:1029E600202D312D2D206E6F20636F6E6E65637402
:0429F600696F6E0097
:00000001FF
